{
  "_format": "hh-sol-artifact-1",
  "contractName": "Future_Studio_Token",
  "sourceName": "contracts/Future_Studio_Token.sol",
  "abi": [
    {
      "inputs": [],
      "stateMutability": "nonpayable",
      "type": "constructor"
    },
    {
      "anonymous": false,
      "inputs": [
        {
          "indexed": true,
          "internalType": "address",
          "name": "owner",
          "type": "address"
        },
        {
          "indexed": true,
          "internalType": "address",
          "name": "approved",
          "type": "address"
        },
        {
          "indexed": true,
          "internalType": "uint256",
          "name": "tokenId",
          "type": "uint256"
        }
      ],
      "name": "Approval",
      "type": "event"
    },
    {
      "anonymous": false,
      "inputs": [
        {
          "indexed": true,
          "internalType": "address",
          "name": "owner",
          "type": "address"
        },
        {
          "indexed": true,
          "internalType": "address",
          "name": "operator",
          "type": "address"
        },
        {
          "indexed": false,
          "internalType": "bool",
          "name": "approved",
          "type": "bool"
        }
      ],
      "name": "ApprovalForAll",
      "type": "event"
    },
    {
      "anonymous": false,
      "inputs": [
        {
          "indexed": true,
          "internalType": "address",
          "name": "previousOwner",
          "type": "address"
        },
        {
          "indexed": true,
          "internalType": "address",
          "name": "newOwner",
          "type": "address"
        }
      ],
      "name": "OwnershipTransferred",
      "type": "event"
    },
    {
      "anonymous": false,
      "inputs": [
        {
          "indexed": true,
          "internalType": "uint256",
          "name": "token_id",
          "type": "uint256"
        },
        {
          "indexed": true,
          "internalType": "string",
          "name": "repairURI",
          "type": "string"
        }
      ],
      "name": "RepairEvent",
      "type": "event"
    },
    {
      "anonymous": false,
      "inputs": [
        {
          "indexed": true,
          "internalType": "address",
          "name": "from",
          "type": "address"
        },
        {
          "indexed": true,
          "internalType": "address",
          "name": "to",
          "type": "address"
        },
        {
          "indexed": true,
          "internalType": "uint256",
          "name": "tokenId",
          "type": "uint256"
        }
      ],
      "name": "Transfer",
      "type": "event"
    },
    {
      "inputs": [
        {
          "internalType": "address",
          "name": "to",
          "type": "address"
        },
        {
          "internalType": "uint256",
          "name": "tokenId",
          "type": "uint256"
        }
      ],
      "name": "approve",
      "outputs": [],
      "stateMutability": "nonpayable",
      "type": "function"
    },
    {
      "inputs": [
        {
          "internalType": "address",
          "name": "owner",
          "type": "address"
        }
      ],
      "name": "balanceOf",
      "outputs": [
        {
          "internalType": "uint256",
          "name": "",
          "type": "uint256"
        }
      ],
      "stateMutability": "view",
      "type": "function"
    },
    {
      "inputs": [
        {
          "internalType": "uint256",
          "name": "tokenId",
          "type": "uint256"
        }
      ],
      "name": "getApproved",
      "outputs": [
        {
          "internalType": "address",
          "name": "",
          "type": "address"
        }
      ],
      "stateMutability": "view",
      "type": "function"
    },
    {
      "inputs": [
        {
          "internalType": "address",
          "name": "owner",
          "type": "address"
        },
        {
          "internalType": "address",
          "name": "operator",
          "type": "address"
        }
      ],
      "name": "isApprovedForAll",
      "outputs": [
        {
          "internalType": "bool",
          "name": "",
          "type": "bool"
        }
      ],
      "stateMutability": "view",
      "type": "function"
    },
    {
      "inputs": [
        {
          "internalType": "address",
          "name": "recipient",
          "type": "address"
        },
        {
          "internalType": "string",
          "name": "tokenURI",
          "type": "string"
        }
      ],
      "name": "mintNFT",
      "outputs": [
        {
          "internalType": "uint256",
          "name": "",
          "type": "uint256"
        }
      ],
      "stateMutability": "nonpayable",
      "type": "function"
    },
    {
      "inputs": [],
      "name": "name",
      "outputs": [
        {
          "internalType": "string",
          "name": "",
          "type": "string"
        }
      ],
      "stateMutability": "view",
      "type": "function"
    },
    {
      "inputs": [],
      "name": "owner",
      "outputs": [
        {
          "internalType": "address",
          "name": "",
          "type": "address"
        }
      ],
      "stateMutability": "view",
      "type": "function"
    },
    {
      "inputs": [
        {
          "internalType": "uint256",
          "name": "tokenId",
          "type": "uint256"
        }
      ],
      "name": "ownerOf",
      "outputs": [
        {
          "internalType": "address",
          "name": "",
          "type": "address"
        }
      ],
      "stateMutability": "view",
      "type": "function"
    },
    {
      "inputs": [],
      "name": "renounceOwnership",
      "outputs": [],
      "stateMutability": "nonpayable",
      "type": "function"
    },
    {
      "inputs": [
        {
          "internalType": "uint256",
          "name": "token_id",
          "type": "uint256"
        },
        {
          "internalType": "string",
          "name": "repairURI",
          "type": "string"
        }
      ],
      "name": "repairProduct",
      "outputs": [],
      "stateMutability": "nonpayable",
      "type": "function"
    },
    {
      "inputs": [
        {
          "internalType": "address",
          "name": "from",
          "type": "address"
        },
        {
          "internalType": "address",
          "name": "to",
          "type": "address"
        },
        {
          "internalType": "uint256",
          "name": "tokenId",
          "type": "uint256"
        }
      ],
      "name": "safeTransferFrom",
      "outputs": [],
      "stateMutability": "nonpayable",
      "type": "function"
    },
    {
      "inputs": [
        {
          "internalType": "address",
          "name": "from",
          "type": "address"
        },
        {
          "internalType": "address",
          "name": "to",
          "type": "address"
        },
        {
          "internalType": "uint256",
          "name": "tokenId",
          "type": "uint256"
        },
        {
          "internalType": "bytes",
          "name": "_data",
          "type": "bytes"
        }
      ],
      "name": "safeTransferFrom",
      "outputs": [],
      "stateMutability": "nonpayable",
      "type": "function"
    },
    {
      "inputs": [
        {
          "internalType": "address",
          "name": "operator",
          "type": "address"
        },
        {
          "internalType": "bool",
          "name": "approved",
          "type": "bool"
        }
      ],
      "name": "setApprovalForAll",
      "outputs": [],
      "stateMutability": "nonpayable",
      "type": "function"
    },
    {
      "inputs": [
        {
          "internalType": "bytes4",
          "name": "interfaceId",
          "type": "bytes4"
        }
      ],
      "name": "supportsInterface",
      "outputs": [
        {
          "internalType": "bool",
          "name": "",
          "type": "bool"
        }
      ],
      "stateMutability": "view",
      "type": "function"
    },
    {
      "inputs": [],
      "name": "symbol",
      "outputs": [
        {
          "internalType": "string",
          "name": "",
          "type": "string"
        }
      ],
      "stateMutability": "view",
      "type": "function"
    },
    {
      "inputs": [
        {
          "internalType": "uint256",
          "name": "tokenId",
          "type": "uint256"
        }
      ],
      "name": "tokenURI",
      "outputs": [
        {
          "internalType": "string",
          "name": "",
          "type": "string"
        }
      ],
      "stateMutability": "view",
      "type": "function"
    },
    {
      "inputs": [
        {
          "internalType": "address",
          "name": "from",
          "type": "address"
        },
        {
          "internalType": "address",
          "name": "to",
          "type": "address"
        },
        {
          "internalType": "uint256",
          "name": "tokenId",
          "type": "uint256"
        }
      ],
      "name": "transferFrom",
      "outputs": [],
      "stateMutability": "nonpayable",
      "type": "function"
    },
    {
      "inputs": [
        {
          "internalType": "address",
          "name": "newOwner",
          "type": "address"
        }
      ],
      "name": "transferOwnership",
      "outputs": [],
      "stateMutability": "nonpayable",
      "type": "function"
    }
  ],
  "bytecode": "0x60806040523480156200001157600080fd5b506040518060400160405280600981526020017f4c6966656379636c6500000000000000000000000000000000000000000000008152506040518060400160405280601381526020017f4675747572655f53747564696f5f546f6b656e00000000000000000000000000815250816000908051906020019062000096929190620001a6565b508060019080519060200190620000af929190620001a6565b505050620000d2620000c6620000d860201b60201c565b620000e060201b60201c565b620002bb565b600033905090565b6000600760009054906101000a900473ffffffffffffffffffffffffffffffffffffffff16905081600760006101000a81548173ffffffffffffffffffffffffffffffffffffffff021916908373ffffffffffffffffffffffffffffffffffffffff1602179055508173ffffffffffffffffffffffffffffffffffffffff168173ffffffffffffffffffffffffffffffffffffffff167f8be0079c531659141344cd1fd0a4f28419497f9722a3daafe3b4186f6b6457e060405160405180910390a35050565b828054620001b49062000256565b90600052602060002090601f016020900481019282620001d8576000855562000224565b82601f10620001f357805160ff191683800117855562000224565b8280016001018555821562000224579182015b828111156200022357825182559160200191906001019062000206565b5b50905062000233919062000237565b5090565b5b808211156200025257600081600090555060010162000238565b5090565b600060028204905060018216806200026f57607f821691505b602082108114156200028657620002856200028c565b5b50919050565b7f4e487b7100000000000000000000000000000000000000000000000000000000600052602260045260246000fd5b6130c280620002cb6000396000f3fe608060405234801561001057600080fd5b50600436106101165760003560e01c8063715018a6116100a2578063b88d4fde11610071578063b88d4fde146102cb578063c87b56dd146102e7578063e985e9c514610317578063eacabe1414610347578063f2fde38b1461037757610116565b8063715018a6146102695780638da5cb5b1461027357806395d89b4114610291578063a22cb465146102af57610116565b806323b872dd116100e957806323b872dd146101b5578063300c5498146101d157806342842e0e146101ed5780636352211e1461020957806370a082311461023957610116565b806301ffc9a71461011b57806306fdde031461014b578063081812fc14610169578063095ea7b314610199575b600080fd5b61013560048036038101906101309190612006565b610393565b60405161014291906124bd565b60405180910390f35b610153610475565b60405161016091906124d8565b60405180910390f35b610183600480360381019061017e9190612058565b610507565b6040516101909190612456565b60405180910390f35b6101b360048036038101906101ae9190611fca565b61058c565b005b6101cf60048036038101906101ca9190611e70565b6106a4565b005b6101eb60048036038101906101e69190612081565b610704565b005b61020760048036038101906102029190611e70565b61074b565b005b610223600480360381019061021e9190612058565b61076b565b6040516102309190612456565b60405180910390f35b610253600480360381019061024e9190611e0b565b61081d565b604051610260919061273a565b60405180910390f35b6102716108d5565b005b61027b61095d565b6040516102889190612456565b60405180910390f35b610299610987565b6040516102a691906124d8565b60405180910390f35b6102c960048036038101906102c49190611f3a565b610a19565b005b6102e560048036038101906102e09190611ebf565b610a2f565b005b61030160048036038101906102fc9190612058565b610a91565b60405161030e91906124d8565b60405180910390f35b610331600480360381019061032c9190611e34565b610be3565b60405161033e91906124bd565b60405180910390f35b610361600480360381019061035c9190611f76565b610c77565b60405161036e919061273a565b60405180910390f35b610391600480360381019061038c9190611e0b565b610d2b565b005b60007f80ac58cd000000000000000000000000000000000000000000000000000000007bffffffffffffffffffffffffffffffffffffffffffffffffffffffff1916827bffffffffffffffffffffffffffffffffffffffffffffffffffffffff1916148061045e57507f5b5e139f000000000000000000000000000000000000000000000000000000007bffffffffffffffffffffffffffffffffffffffffffffffffffffffff1916827bffffffffffffffffffffffffffffffffffffffffffffffffffffffff1916145b8061046e575061046d82610e23565b5b9050919050565b60606000805461048490612990565b80601f01602080910402602001604051908101604052809291908181526020018280546104b090612990565b80156104fd5780601f106104d2576101008083540402835291602001916104fd565b820191906000526020600020905b8154815290600101906020018083116104e057829003601f168201915b5050505050905090565b600061051282610e8d565b610551576040517f08c379a00000000000000000000000000000000000000000000000000000000081526004016105489061269a565b60405180910390fd5b6004600083815260200190815260200160002060009054906101000a900473ffffffffffffffffffffffffffffffffffffffff169050919050565b60006105978261076b565b90508073ffffffffffffffffffffffffffffffffffffffff168373ffffffffffffffffffffffffffffffffffffffff161415610608576040517f08c379a00000000000000000000000000000000000000000000000000000000081526004016105ff906126fa565b60405180910390fd5b8073ffffffffffffffffffffffffffffffffffffffff16610627610ef9565b73ffffffffffffffffffffffffffffffffffffffff161480610656575061065581610650610ef9565b610be3565b5b610695576040517f08c379a000000000000000000000000000000000000000000000000000000000815260040161068c906125da565b60405180910390fd5b61069f8383610f01565b505050565b6106b56106af610ef9565b82610fba565b6106f4576040517f08c379a00000000000000000000000000000000000000000000000000000000081526004016106eb9061271a565b60405180910390fd5b6106ff838383611098565b505050565b80604051610712919061241b565b6040518091039020827f61be6ecb12385b2eb92646dde20eb9afbaf26769259f29c874bb75a7ec6ec9ec60405160405180910390a35050565b61076683838360405180602001604052806000815250610a2f565b505050565b6000806002600084815260200190815260200160002060009054906101000a900473ffffffffffffffffffffffffffffffffffffffff169050600073ffffffffffffffffffffffffffffffffffffffff168173ffffffffffffffffffffffffffffffffffffffff161415610814576040517f08c379a000000000000000000000000000000000000000000000000000000000815260040161080b9061261a565b60405180910390fd5b80915050919050565b60008073ffffffffffffffffffffffffffffffffffffffff168273ffffffffffffffffffffffffffffffffffffffff16141561088e576040517f08c379a0000000000000000000000000000000000000000000000000000000008152600401610885906125fa565b60405180910390fd5b600360008373ffffffffffffffffffffffffffffffffffffffff1673ffffffffffffffffffffffffffffffffffffffff168152602001908152602001600020549050919050565b6108dd610ef9565b73ffffffffffffffffffffffffffffffffffffffff166108fb61095d565b73ffffffffffffffffffffffffffffffffffffffff1614610951576040517f08c379a0000000000000000000000000000000000000000000000000000000008152600401610948906126ba565b60405180910390fd5b61095b60006112ff565b565b6000600760009054906101000a900473ffffffffffffffffffffffffffffffffffffffff16905090565b60606001805461099690612990565b80601f01602080910402602001604051908101604052809291908181526020018280546109c290612990565b8015610a0f5780601f106109e457610100808354040283529160200191610a0f565b820191906000526020600020905b8154815290600101906020018083116109f257829003601f168201915b5050505050905090565b610a2b610a24610ef9565b83836113c5565b5050565b610a40610a3a610ef9565b83610fba565b610a7f576040517f08c379a0000000000000000000000000000000000000000000000000000000008152600401610a769061271a565b60405180910390fd5b610a8b84848484611532565b50505050565b6060610a9c82610e8d565b610adb576040517f08c379a0000000000000000000000000000000000000000000000000000000008152600401610ad29061267a565b60405180910390fd5b6000600660008481526020019081526020016000208054610afb90612990565b80601f0160208091040260200160405190810160405280929190818152602001828054610b2790612990565b8015610b745780601f10610b4957610100808354040283529160200191610b74565b820191906000526020600020905b815481529060010190602001808311610b5757829003601f168201915b505050505090506000610b8561158e565b9050600081511415610b9b578192505050610bde565b600082511115610bd0578082604051602001610bb8929190612432565b60405160208183030381529060405292505050610bde565b610bd9846115a5565b925050505b919050565b6000600560008473ffffffffffffffffffffffffffffffffffffffff1673ffffffffffffffffffffffffffffffffffffffff16815260200190815260200160002060008373ffffffffffffffffffffffffffffffffffffffff1673ffffffffffffffffffffffffffffffffffffffff16815260200190815260200160002060009054906101000a900460ff16905092915050565b6000610c81610ef9565b73ffffffffffffffffffffffffffffffffffffffff16610c9f61095d565b73ffffffffffffffffffffffffffffffffffffffff1614610cf5576040517f08c379a0000000000000000000000000000000000000000000000000000000008152600401610cec906126ba565b60405180910390fd5b610cff600861164c565b6000610d0b6008611662565b9050610d178482611670565b610d21818461184a565b8091505092915050565b610d33610ef9565b73ffffffffffffffffffffffffffffffffffffffff16610d5161095d565b73ffffffffffffffffffffffffffffffffffffffff1614610da7576040517f08c379a0000000000000000000000000000000000000000000000000000000008152600401610d9e906126ba565b60405180910390fd5b600073ffffffffffffffffffffffffffffffffffffffff168173ffffffffffffffffffffffffffffffffffffffff161415610e17576040517f08c379a0000000000000000000000000000000000000000000000000000000008152600401610e0e9061251a565b60405180910390fd5b610e20816112ff565b50565b60007f01ffc9a7000000000000000000000000000000000000000000000000000000007bffffffffffffffffffffffffffffffffffffffffffffffffffffffff1916827bffffffffffffffffffffffffffffffffffffffffffffffffffffffff1916149050919050565b60008073ffffffffffffffffffffffffffffffffffffffff166002600084815260200190815260200160002060009054906101000a900473ffffffffffffffffffffffffffffffffffffffff1673ffffffffffffffffffffffffffffffffffffffff1614159050919050565b600033905090565b816004600083815260200190815260200160002060006101000a81548173ffffffffffffffffffffffffffffffffffffffff021916908373ffffffffffffffffffffffffffffffffffffffff160217905550808273ffffffffffffffffffffffffffffffffffffffff16610f748361076b565b73ffffffffffffffffffffffffffffffffffffffff167f8c5be1e5ebec7d5bd14f71427d1e84f3dd0314c0f7b2291e5b200ac8c7c3b92560405160405180910390a45050565b6000610fc582610e8d565b611004576040517f08c379a0000000000000000000000000000000000000000000000000000000008152600401610ffb906125ba565b60405180910390fd5b600061100f8361076b565b90508073ffffffffffffffffffffffffffffffffffffffff168473ffffffffffffffffffffffffffffffffffffffff16148061107e57508373ffffffffffffffffffffffffffffffffffffffff1661106684610507565b73ffffffffffffffffffffffffffffffffffffffff16145b8061108f575061108e8185610be3565b5b91505092915050565b8273ffffffffffffffffffffffffffffffffffffffff166110b88261076b565b73ffffffffffffffffffffffffffffffffffffffff161461110e576040517f08c379a00000000000000000000000000000000000000000000000000000000081526004016111059061253a565b60405180910390fd5b600073ffffffffffffffffffffffffffffffffffffffff168273ffffffffffffffffffffffffffffffffffffffff16141561117e576040517f08c379a00000000000000000000000000000000000000000000000000000000081526004016111759061257a565b60405180910390fd5b6111898383836118be565b611194600082610f01565b6001600360008573ffffffffffffffffffffffffffffffffffffffff1673ffffffffffffffffffffffffffffffffffffffff16815260200190815260200160002060008282546111e491906128a6565b925050819055506001600360008473ffffffffffffffffffffffffffffffffffffffff1673ffffffffffffffffffffffffffffffffffffffff168152602001908152602001600020600082825461123b919061281f565b92505081905550816002600083815260200190815260200160002060006101000a81548173ffffffffffffffffffffffffffffffffffffffff021916908373ffffffffffffffffffffffffffffffffffffffff160217905550808273ffffffffffffffffffffffffffffffffffffffff168473ffffffffffffffffffffffffffffffffffffffff167fddf252ad1be2c89b69c2b068fc378daa952ba7f163c4a11628f55a4df523b3ef60405160405180910390a46112fa8383836118c3565b505050565b6000600760009054906101000a900473ffffffffffffffffffffffffffffffffffffffff16905081600760006101000a81548173ffffffffffffffffffffffffffffffffffffffff021916908373ffffffffffffffffffffffffffffffffffffffff1602179055508173ffffffffffffffffffffffffffffffffffffffff168173ffffffffffffffffffffffffffffffffffffffff167f8be0079c531659141344cd1fd0a4f28419497f9722a3daafe3b4186f6b6457e060405160405180910390a35050565b8173ffffffffffffffffffffffffffffffffffffffff168373ffffffffffffffffffffffffffffffffffffffff161415611434576040517f08c379a000000000000000000000000000000000000000000000000000000000815260040161142b9061259a565b60405180910390fd5b80600560008573ffffffffffffffffffffffffffffffffffffffff1673ffffffffffffffffffffffffffffffffffffffff16815260200190815260200160002060008473ffffffffffffffffffffffffffffffffffffffff1673ffffffffffffffffffffffffffffffffffffffff16815260200190815260200160002060006101000a81548160ff0219169083151502179055508173ffffffffffffffffffffffffffffffffffffffff168373ffffffffffffffffffffffffffffffffffffffff167f17307eab39ab6107e8899845ad3d59bd9653f200f220920489ca2b5937696c318360405161152591906124bd565b60405180910390a3505050565b61153d848484611098565b611549848484846118c8565b611588576040517f08c379a000000000000000000000000000000000000000000000000000000000815260040161157f906124fa565b60405180910390fd5b50505050565b606060405180602001604052806000815250905090565b60606115b082610e8d565b6115ef576040517f08c379a00000000000000000000000000000000000000000000000000000000081526004016115e6906126da565b60405180910390fd5b60006115f961158e565b905060008151116116195760405180602001604052806000815250611644565b8061162384611a5f565b604051602001611634929190612432565b6040516020818303038152906040525b915050919050565b6001816000016000828254019250508190555050565b600081600001549050919050565b600073ffffffffffffffffffffffffffffffffffffffff168273ffffffffffffffffffffffffffffffffffffffff1614156116e0576040517f08c379a00000000000000000000000000000000000000000000000000000000081526004016116d79061265a565b60405180910390fd5b6116e981610e8d565b15611729576040517f08c379a00000000000000000000000000000000000000000000000000000000081526004016117209061255a565b60405180910390fd5b611735600083836118be565b6001600360008473ffffffffffffffffffffffffffffffffffffffff1673ffffffffffffffffffffffffffffffffffffffff1681526020019081526020016000206000828254611785919061281f565b92505081905550816002600083815260200190815260200160002060006101000a81548173ffffffffffffffffffffffffffffffffffffffff021916908373ffffffffffffffffffffffffffffffffffffffff160217905550808273ffffffffffffffffffffffffffffffffffffffff16600073ffffffffffffffffffffffffffffffffffffffff167fddf252ad1be2c89b69c2b068fc378daa952ba7f163c4a11628f55a4df523b3ef60405160405180910390a4611846600083836118c3565b5050565b61185382610e8d565b611892576040517f08c379a00000000000000000000000000000000000000000000000000000000081526004016118899061263a565b60405180910390fd5b806006600084815260200190815260200160002090805190602001906118b9929190611c2f565b505050565b505050565b505050565b60006118e98473ffffffffffffffffffffffffffffffffffffffff16611c0c565b15611a52578373ffffffffffffffffffffffffffffffffffffffff1663150b7a02611912610ef9565b8786866040518563ffffffff1660e01b81526004016119349493929190612471565b602060405180830381600087803b15801561194e57600080fd5b505af192505050801561197f57506040513d601f19601f8201168201806040525081019061197c919061202f565b60015b611a02573d80600081146119af576040519150601f19603f3d011682016040523d82523d6000602084013e6119b4565b606091505b506000815114156119fa576040517f08c379a00000000000000000000000000000000000000000000000000000000081526004016119f1906124fa565b60405180910390fd5b805181602001fd5b63150b7a0260e01b7bffffffffffffffffffffffffffffffffffffffffffffffffffffffff1916817bffffffffffffffffffffffffffffffffffffffffffffffffffffffff191614915050611a57565b600190505b949350505050565b60606000821415611aa7576040518060400160405280600181526020017f30000000000000000000000000000000000000000000000000000000000000008152509050611c07565b600082905060005b60008214611ad9578080611ac2906129f3565b915050600a82611ad29190612875565b9150611aaf565b60008167ffffffffffffffff811115611b1b577f4e487b7100000000000000000000000000000000000000000000000000000000600052604160045260246000fd5b6040519080825280601f01601f191660200182016040528015611b4d5781602001600182028036833780820191505090505b5090505b60008514611c0057600182611b6691906128a6565b9150600a85611b759190612a3c565b6030611b81919061281f565b60f81b818381518110611bbd577f4e487b7100000000000000000000000000000000000000000000000000000000600052603260045260246000fd5b60200101907effffffffffffffffffffffffffffffffffffffffffffffffffffffffffffff1916908160001a905350600a85611bf99190612875565b9450611b51565b8093505050505b919050565b6000808273ffffffffffffffffffffffffffffffffffffffff163b119050919050565b828054611c3b90612990565b90600052602060002090601f016020900481019282611c5d5760008555611ca4565b82601f10611c7657805160ff1916838001178555611ca4565b82800160010185558215611ca4579182015b82811115611ca3578251825591602001919060010190611c88565b5b509050611cb19190611cb5565b5090565b5b80821115611cce576000816000905550600101611cb6565b5090565b6000611ce5611ce08461277a565b612755565b905082815260208101848484011115611cfd57600080fd5b611d0884828561294e565b509392505050565b6000611d23611d1e846127ab565b612755565b905082815260208101848484011115611d3b57600080fd5b611d4684828561294e565b509392505050565b600081359050611d5d81613030565b92915050565b600081359050611d7281613047565b92915050565b600081359050611d878161305e565b92915050565b600081519050611d9c8161305e565b92915050565b600082601f830112611db357600080fd5b8135611dc3848260208601611cd2565b91505092915050565b600082601f830112611ddd57600080fd5b8135611ded848260208601611d10565b91505092915050565b600081359050611e0581613075565b92915050565b600060208284031215611e1d57600080fd5b6000611e2b84828501611d4e565b91505092915050565b60008060408385031215611e4757600080fd5b6000611e5585828601611d4e565b9250506020611e6685828601611d4e565b9150509250929050565b600080600060608486031215611e8557600080fd5b6000611e9386828701611d4e565b9350506020611ea486828701611d4e565b9250506040611eb586828701611df6565b9150509250925092565b60008060008060808587031215611ed557600080fd5b6000611ee387828801611d4e565b9450506020611ef487828801611d4e565b9350506040611f0587828801611df6565b925050606085013567ffffffffffffffff811115611f2257600080fd5b611f2e87828801611da2565b91505092959194509250565b60008060408385031215611f4d57600080fd5b6000611f5b85828601611d4e565b9250506020611f6c85828601611d63565b9150509250929050565b60008060408385031215611f8957600080fd5b6000611f9785828601611d4e565b925050602083013567ffffffffffffffff811115611fb457600080fd5b611fc085828601611dcc565b9150509250929050565b60008060408385031215611fdd57600080fd5b6000611feb85828601611d4e565b9250506020611ffc85828601611df6565b9150509250929050565b60006020828403121561201857600080fd5b600061202684828501611d78565b91505092915050565b60006020828403121561204157600080fd5b600061204f84828501611d8d565b91505092915050565b60006020828403121561206a57600080fd5b600061207884828501611df6565b91505092915050565b6000806040838503121561209457600080fd5b60006120a285828601611df6565b925050602083013567ffffffffffffffff8111156120bf57600080fd5b6120cb85828601611dcc565b9150509250929050565b6120de816128da565b82525050565b6120ed816128ec565b82525050565b60006120fe826127dc565b61210881856127f2565b935061211881856020860161295d565b61212181612b29565b840191505092915050565b6000612137826127e7565b6121418185612803565b935061215181856020860161295d565b61215a81612b29565b840191505092915050565b6000612170826127e7565b61217a8185612814565b935061218a81856020860161295d565b80840191505092915050565b60006121a3603283612803565b91506121ae82612b3a565b604082019050919050565b60006121c6602683612803565b91506121d182612b89565b604082019050919050565b60006121e9602583612803565b91506121f482612bd8565b604082019050919050565b600061220c601c83612803565b915061221782612c27565b602082019050919050565b600061222f602483612803565b915061223a82612c50565b604082019050919050565b6000612252601983612803565b915061225d82612c9f565b602082019050919050565b6000612275602c83612803565b915061228082612cc8565b604082019050919050565b6000612298603883612803565b91506122a382612d17565b604082019050919050565b60006122bb602a83612803565b91506122c682612d66565b604082019050919050565b60006122de602983612803565b91506122e982612db5565b604082019050919050565b6000612301602e83612803565b915061230c82612e04565b604082019050919050565b6000612324602083612803565b915061232f82612e53565b602082019050919050565b6000612347603183612803565b915061235282612e7c565b604082019050919050565b600061236a602c83612803565b915061237582612ecb565b604082019050919050565b600061238d602083612803565b915061239882612f1a565b602082019050919050565b60006123b0602f83612803565b91506123bb82612f43565b604082019050919050565b60006123d3602183612803565b91506123de82612f92565b604082019050919050565b60006123f6603183612803565b915061240182612fe1565b604082019050919050565b61241581612944565b82525050565b60006124278284612165565b915081905092915050565b600061243e8285612165565b915061244a8284612165565b91508190509392505050565b600060208201905061246b60008301846120d5565b92915050565b600060808201905061248660008301876120d5565b61249360208301866120d5565b6124a0604083018561240c565b81810360608301526124b281846120f3565b905095945050505050565b60006020820190506124d260008301846120e4565b92915050565b600060208201905081810360008301526124f2818461212c565b905092915050565b6000602082019050818103600083015261251381612196565b9050919050565b60006020820190508181036000830152612533816121b9565b9050919050565b60006020820190508181036000830152612553816121dc565b9050919050565b60006020820190508181036000830152612573816121ff565b9050919050565b6000602082019050818103600083015261259381612222565b9050919050565b600060208201905081810360008301526125b381612245565b9050919050565b600060208201905081810360008301526125d381612268565b9050919050565b600060208201905081810360008301526125f38161228b565b9050919050565b60006020820190508181036000830152612613816122ae565b9050919050565b60006020820190508181036000830152612633816122d1565b9050919050565b60006020820190508181036000830152612653816122f4565b9050919050565b6000602082019050818103600083015261267381612317565b9050919050565b600060208201905081810360008301526126938161233a565b9050919050565b600060208201905081810360008301526126b38161235d565b9050919050565b600060208201905081810360008301526126d381612380565b9050919050565b600060208201905081810360008301526126f3816123a3565b9050919050565b60006020820190508181036000830152612713816123c6565b9050919050565b60006020820190508181036000830152612733816123e9565b9050919050565b600060208201905061274f600083018461240c565b92915050565b600061275f612770565b905061276b82826129c2565b919050565b6000604051905090565b600067ffffffffffffffff82111561279557612794612afa565b5b61279e82612b29565b9050602081019050919050565b600067ffffffffffffffff8211156127c6576127c5612afa565b5b6127cf82612b29565b9050602081019050919050565b600081519050919050565b600081519050919050565b600082825260208201905092915050565b600082825260208201905092915050565b600081905092915050565b600061282a82612944565b915061283583612944565b9250827fffffffffffffffffffffffffffffffffffffffffffffffffffffffffffffffff0382111561286a57612869612a6d565b5b828201905092915050565b600061288082612944565b915061288b83612944565b92508261289b5761289a612a9c565b5b828204905092915050565b60006128b182612944565b91506128bc83612944565b9250828210156128cf576128ce612a6d565b5b828203905092915050565b60006128e582612924565b9050919050565b60008115159050919050565b60007fffffffff0000000000000000000000000000000000000000000000000000000082169050919050565b600073ffffffffffffffffffffffffffffffffffffffff82169050919050565b6000819050919050565b82818337600083830152505050565b60005b8381101561297b578082015181840152602081019050612960565b8381111561298a576000848401525b50505050565b600060028204905060018216806129a857607f821691505b602082108114156129bc576129bb612acb565b5b50919050565b6129cb82612b29565b810181811067ffffffffffffffff821117156129ea576129e9612afa565b5b80604052505050565b60006129fe82612944565b91507fffffffffffffffffffffffffffffffffffffffffffffffffffffffffffffffff821415612a3157612a30612a6d565b5b600182019050919050565b6000612a4782612944565b9150612a5283612944565b925082612a6257612a61612a9c565b5b828206905092915050565b7f4e487b7100000000000000000000000000000000000000000000000000000000600052601160045260246000fd5b7f4e487b7100000000000000000000000000000000000000000000000000000000600052601260045260246000fd5b7f4e487b7100000000000000000000000000000000000000000000000000000000600052602260045260246000fd5b7f4e487b7100000000000000000000000000000000000000000000000000000000600052604160045260246000fd5b6000601f19601f8301169050919050565b7f4552433732313a207472616e7366657220746f206e6f6e20455243373231526560008201527f63656976657220696d706c656d656e7465720000000000000000000000000000602082015250565b7f4f776e61626c653a206e6577206f776e657220697320746865207a65726f206160008201527f6464726573730000000000000000000000000000000000000000000000000000602082015250565b7f4552433732313a207472616e736665722066726f6d20696e636f72726563742060008201527f6f776e6572000000000000000000000000000000000000000000000000000000602082015250565b7f4552433732313a20746f6b656e20616c7265616479206d696e74656400000000600082015250565b7f4552433732313a207472616e7366657220746f20746865207a65726f2061646460008201527f7265737300000000000000000000000000000000000000000000000000000000602082015250565b7f4552433732313a20617070726f766520746f2063616c6c657200000000000000600082015250565b7f4552433732313a206f70657261746f7220717565727920666f72206e6f6e657860008201527f697374656e7420746f6b656e0000000000000000000000000000000000000000602082015250565b7f4552433732313a20617070726f76652063616c6c6572206973206e6f74206f7760008201527f6e6572206e6f7220617070726f76656420666f7220616c6c0000000000000000602082015250565b7f4552433732313a2062616c616e636520717565727920666f7220746865207a6560008201527f726f206164647265737300000000000000000000000000000000000000000000602082015250565b7f4552433732313a206f776e657220717565727920666f72206e6f6e657869737460008201527f656e7420746f6b656e0000000000000000000000000000000000000000000000602082015250565b7f45524337323155524953746f726167653a2055524920736574206f66206e6f6e60008201527f6578697374656e7420746f6b656e000000000000000000000000000000000000602082015250565b7f4552433732313a206d696e7420746f20746865207a65726f2061646472657373600082015250565b7f45524337323155524953746f726167653a2055524920717565727920666f722060008201527f6e6f6e6578697374656e7420746f6b656e000000000000000000000000000000602082015250565b7f4552433732313a20617070726f76656420717565727920666f72206e6f6e657860008201527f697374656e7420746f6b656e0000000000000000000000000000000000000000602082015250565b7f4f776e61626c653a2063616c6c6572206973206e6f7420746865206f776e6572600082015250565b7f4552433732314d657461646174613a2055524920717565727920666f72206e6f60008201527f6e6578697374656e7420746f6b656e0000000000000000000000000000000000602082015250565b7f4552433732313a20617070726f76616c20746f2063757272656e74206f776e6560008201527f7200000000000000000000000000000000000000000000000000000000000000602082015250565b7f4552433732313a207472616e736665722063616c6c6572206973206e6f74206f60008201527f776e6572206e6f7220617070726f766564000000000000000000000000000000602082015250565b613039816128da565b811461304457600080fd5b50565b613050816128ec565b811461305b57600080fd5b50565b613067816128f8565b811461307257600080fd5b50565b61307e81612944565b811461308957600080fd5b5056fea2646970667358221220ac098054ae29073720cda1cc14d4e4e82815a1e0afc313b7a5f278968114268264736f6c63430008010033",
  "linkReferences": {},
  "deployedLinkReferences": {}
}